:03000000020C0DE2
:0C0C0D00787FE4F6D8FD758120020C54BD
:100C99005100463F065B4F666D7D077F6F777C3954
:100CA9005E7971404A0015BF86DBCFE6EDFD87FF0F
:100CB900EF41000E0044005F0000000044006300A3
:100CC9000000004400670000000044000300000029
:100CD90000440024000000004400200000000042FD
:100CE9000008000042000A000042002C00004200F7
:100CF9002E000042003000004200320000C10150C5
:100D090000363F065B4F666D7D077F6F777C395EE6
:020D19007971EE
:100FE800EF1FAA0670011E4A60107C007D3CED1DB3
:0A0FF800AA0470011C4A60E880F4AE
:0110020022CB
:100AD800900075EEF0A3EFF0AB05AA04900075E066
:100AE800FEA3E0FF7C007D6412045A900000EFF042
:100AF800900075E0FEA3E0FF7C007D6412045A902C
:100B08000075ECF0A3EDF0900075E0FEA3E0FF7C2B
:100B1800007D0A12045A90000FEFF0900075E0FE75
:100B2800A3E0FF7C007D0A12045A900075ECF0A344
:100B3800EDF0900012F07C007D64AF03AE02120469
:100B48005A900001EFF07C007D64AF03AE021204FE
:100B58005AAA04AB057C007D0AAF03AE0212045A00
:100B6800900010EFF07C007D0AAF03AE0212045A29
:080B7800AB05900013EBF02225
:100F8D00E4FDFCC3ED9FEC9E5015E4FBFA0BBB009A
:0F0F9D00010AEB64794A70F50DBD00010C80E488
:010FAC002222
:0E1017007F027E00EF1FAC0670011E4C70F6CB
:0110250022A8
:0E1026007F0A7E00EF1FAC0670011E4C70F6B4
:011034002299
:0F103500D2A6D2A5121017C2A6121017C2A5225A
:0C105200C2A6D2A5121017D2A6021017D9
:0E104400A20292A6D2A5121017C2A502101782
:0C105E00D2A5121017A2A6C2A5021017FE
:050EF3001210357FA67E
:020EF800AD0744
:100EFA00E4FBEBC39408748094805013ED25E0FD65
:100F0A0092A6D2A5121017C2A51210170B80E302DF
:020F1A00105E67
:100F1C00E4FDD2A6FBEBC39408748094805017EDCB
:100F2C0025E0FDD2A5121017A2A6E4334DFDC2A5F3
:080F3C001210170B80DFAF0556
:010F4400228A
:10100300AA05A907120EF3AF01120EF8AF02120ED2
:04101300F80210527D
:020F6B00AA07D3
:100F6D00120EF3AF02120EF81210357FA7120EF803
:0F0F7D00120F1CAD07D202121044121052AF0512
:010F8C002242
:100E7600120EF37F32120EF81210357FA7120EF8FB
:100E8600E4FAEAC39406748094805020120F1C740E
:100E9600572AF582E43400F583EFF0EA640570041E
:100EA600D2028002C2021210440A80D612105202E6
:020EB600102604
:10000E007D0B7F311210037D087F2C1210037D08AB
:05001E007F2D0210031C
:100D8000900058E0FE900057E07C002400FFEC3E0D
:100D9000FE900034F0A3EFF0C3EE64809480501511
:100DA000900034E0FEA3E0FFC3E49FFFE49E9000C8
:100DB00034F0A3EFF0900034E0FCA3E0FDEC12036C
:100DC000537B9A7A997979784012011E90005F02DC
:020DD00004D647
:100DD20090005AE0FE900059E07C002400FFEC3EB7
:100DE200FE900034F0A3EFF0C3EE648094805015BF
:100DF200900034E0FEA3E0FFC3E49FFFE49E900076
:100E020034F0A3EFF0900034E0FCA3E0FDEC120319
:100E1200537B9A7A997979784012011E9000630285
:020E220004D6F4
:100E240090005CE0FE90005BE07C002400FFEC3E60
:100E3400FE900034F0A3EFF0C3EE6480948050156C
:100E4400900034E0FEA3E0FFC3E49FFFE49E900023
:100E540034F0A3EFF0900034E0FCA3E0FDEC1203C7
:100E6400537B9A7A997979784012011E900067022F
:020E740004D6A2
:1005680090002DE004F0700690002CE004F0D39089
:10057800002DE0941390002CE09400500302069F95
:10058800E4FBFA79A07841900024E0FCA3E0FDA305
:10059800E0FEA3E0FF12022712038C90000AEEF09F
:1005A800A3EFF0E4FBFA79A07841900020E0FCA3E7
:1005B800E0FDA3E0FEA3E0FF12022712038C9000E7
:1005C80008EEF0A3EFF090002EE0FCA3E0FD24FF7E
:1005D800FBEC34FFFAD3EB9FEA9E7E0050047F01C8
:1005E80080027F00ED2401FDE43CFCD3EF9DEE9CEE
:1005F8005065900030E0FEA3E0FF24FFFDEE34FFDD
:10060800FCC390000BE09D90000AE09C7C00400435
:100618007D0180027D00EF2401FFE43EFED3ED9FC3
:10062800EC9E503390002EE0FEA3E0FFC39000093B
:10063800E09FFF900008E09EFE12106AC006C00707
:10064800900030E0FEA3E0FFC390000BE09FFF9016
:10065800000AE09EFE8017900008E0FEA3E0FF126B
:10066800106AC006C00790000AE0FEA3E0FF12105F
:100678006AAC06AD07D007D006120AD8E490002C61
:10068800F0A3F09000241204E20000000090002083
:100698001204E200000000120D80120DD2120E2486
:1006A80090005FE0FCA3E0FDA3E0FEA3E0FF1203DF
:1006B8003D90005F1204D6900063E0FCA3E0FDA328
:1006C800E0FEA3E0FF12033D9000631204D6900001
:1006D80063E0FCA3E0FDA3E0FEA3E0FFA804A905F6
:1006E800AA06FB12011EC004C005C006C007900080
:1006F8005FE0FCA3E0FDA3E0FEA3E0FFA804A905DA
:10070800AA06FB12011ED003D002D001D0001200AD
:100718002DC004C005C006C007900067E0FCA3E038
:10072800FDA3E0FEA3E0FFA804A905AA06FB1201A9
:100738001ED003D002D001D00012002D120A30A81A
:1007480004A905AA06AB0790005FE0FCA3E0FDA39F
:10075800E0FEA3E0FF120227120EB8E4FBFA793498
:10076800784312011E7BDB7A0F7949784012022701
:100778009000711204D6900063E0FCA3E0FDA3E0B2
:10078800FEA3E0FFA804A905AA06FB12011EC004E7
:10079800C005C006C00790005FE0FCA3E0FDA3E031
:1007A800FEA3E0FFA804A905AA06FB12011ED003B8
:1007B800D002D001D00012002DC004C005C006C070
:1007C80007900067E0FCA3E0FDA3E0FEA3E0FFA81C
:1007D80004A905AA06FB12011ED003D002D001D03D
:1007E8000012002D120A30A804A905AA06AB07902A
:1007F8000063E0FCA3E0FDA3E0FEA3E0FF120227F4
:10080800120EB8E4FBFA7934784312011E7BDB7AC6
:100818000F7949784012022790006D1204D6E4FF40
:10082800FEFDFC900071E0F8A3E0F9A3E0FAA3E074
:10083800FB1202C45017900071E0FCA3E0FDA3E096
:10084800FEA3E0FF12033D9000711204D6E4FFFE00
:10085800FDFC90006DE0F8A3E0F9A3E0FAA3E0FB4B
:100868001202C4501790006DE0FCA3E0FDA3E0FE67
:10087800A3E0FF12033D90006D1204D690006DE0D6
:10088800FCA3E0FDA3E0FEA3E0FFE4FBFA792078F7
:100898004112011E90006D1204D6900071E0FCA375
:1008A800E0FDA3E0FEA3E0FFE4FBFA792078411223
:1008B800011E9000711204D6900024E0FCA3E0FD14
:1008C800A3E0FEA3E0FF90006DE0F8A3E0F9A3E049
:1008D800FAA3E0FB12002D9000241204D690002009
:1008E800E0FCA3E0FDA3E0FEA3E0FF900071E0F8C8
:1008F800A3E0F9A3E0FAA3E0FB12002D9000200288
:0209080004D613
:03000B00020D1CC7
:100D1C00C0E0C083C082C0D075D000C007758CFC09
:100D2C00758A1790001FE004F0E0640A7003F0D29B
:100D3C000090006BE004F0E064027001F07580003C
:100D4C0090006BE014600D04701F75A000900007FC
:100D5C00E0C4800775A001900007E0540F2436F51D
:100D6C0082E43400F583E0F580D007D0D0D082D077
:040D7C0083D0E0320E
:100FCC00758E80439850758BE0758DFE438E40C2B4
:0C0FDC0098C299D28ED2ACD2AFD2BC2207
:080003002001FDD2018F9922BA
:03002300020FAD1C
:100FAD00C0E0C083C082309808C298900007E599D0
:0F0FBD00F0309904C299C201D082D083D0E032C3
:100F4500E4F5B2F5B17596FFF5957594FFF59375D2
:100F55008901D2A9758CFC758A17D28C120FCC9099
:060F65000007F0C20022AB
:100B80007FF47E01120F8DE4F5937594FFF5957552
:100B90009608C2A312000EE4FF120F6B90006CEFD8
:100BA000F0120F45120E7612056820B2317F057ED5
:100BB00000120F8D20B224120E76120568900008E4
:100BC000E0FFA3E090002ECFF0A3EFF090000AE04A
:100BD000FFA3E0900030CFF0A3EFF030B2FD900023
:100BE00007E064BF70BE900000E0FF1200039000B9
:100BF0000FE0FF120003900001E0FF1200039000DD
:0D0C000010E0FF120003E4900007F0809761
:100026000203F8E86480F8E933E83360110460F00D
:10003600ED33EC337009E8FCE9FDEAFEEBFF220440
:1000460060DED3EB9FEA9EE99DE8C2E78CF0C2F73B
:1000560095F0400CE8CCF8E9CDF9EACEFAEBCFFB07
:100066001203C385D0F05804700320D5B3E804709A
:10007600075002B2D502040292D5EC0460F7E4CC34
:10008600C0E0C398F8603B94186008400DD0E0FBD0
:100096000203DAE4FBFAC9FC8028E830E406E4C986
:1000A600FBE4CAFCE830E305E4C9CACBFCE8540724
:1000B6006010F8C3E913F9EA13FAEB13FBEC13FC2F
:1000C600D8F130F52FC3E49CFCEF9BFFEE9AFEEDD2
:1000D60099FDD0E0FBEF4E4D4C701222DB0302037C
:1000E600FFEC2CFCEF33FFEE33FEED33FDED30E796
:1000F600EB0203DAEF2BFFEE3AFEED39FDD0E0FB23
:1001060050130BBB0003020402ED13FDEE13FEEFCA
:0801160013FFEC13FC0203DAF5
:10011E00EC4D6011E8497017ED33EC3304600DE4DB
:10012E00FCFFFEFD22E933E8330470F80203F812F7
:10013E0003C358046009E4CC2481500628500902F8
:10014E0004022840030203FFC0E0EB4A7044B9806A
:10015E0006D0E0FB0203EEEF4E701CBD8008EBFFF5
:10016E00EAFEE9FD80EBE98DF0A4FEE5F002020760
:10017E00E9CDF9EAFEEBFFEF89F0A4FCE5F0CE89BC
:10018E00F0A42EFFE435F0CD89F0A42DFEE435F079
:10019E008067EF4E7005BD80D780C3EF8BF0A4ACA7
:1001AE00F0EE8BF0A42CFCE435F0F8EF8AF0A42CE2
:1001BE00E5F038FCE433CB8DF0A42CFCE5F03BF8F5
:1001CE00EE8AF0A42CFCE5F038F8E433CF89F0A4E5
:1001DE002CFCE5F038CF3400CE89F0A42FFFE5F0EB
:1001EE003EFEE433C98DF0A42EFEE5F039CD8AF043
:1001FE00A42FFFE5F03EFEE43DFD33D0E0FB5007BB
:10020E000BBB000F020402EC2CFCEF33FFEE33FEAF
:06021E00ED33FD0203DADE
:10022400020402EC5D046005E8590470030203F85B
:100234001203C3580460F6EC4860F2EC7004FDFE4F
:10024400FF22C860DB2481C85009C39860025006AD
:100254000203FF9850CAF582E9294B4A7005AB8224
:100264000203EE75F0007C1A7880C3EF9BEE9AEDE2
:1002740099400DC3EF9BFFEE9AFEED99FDE842F025
:10028400DC23ACF0D0E0FFD0E0FED0E0FDAB822078
:10029400E7101BEB60BAEC2CFCEF33FFEE33FEED02
:1002A40033FD0203DAE803F830E705C0F075F00027
:1002B400EF2FFFEE33FEED33FD40B830E7C280AAE6
:1002C40074F8CC6480CCC86480C8F58204604FC3E1
:1002D400EB9FF5F0EA9E42F0E99D42F0E89C45F080
:1002E400603C501DE5825FFFE582D313CB5BCBF40A
:1002F4002B5582FB50280ABA002409B90020088033
:100304001DE5825BFBE582D313CF5FCFF4C3132FCC
:100314005582FF50090EBE00050DBD00010CC3EB54
:100324009FF5F0EA9E42F0E99D42F0E89C45F060BA
:0903340007CC4820E701B3EC22DC
:10033D00ED33EC33600A047003BD8004ECB2E7FCCE
:01034D00228D
:10034E0075F020800E75F010800575F0087D007E2A
:10035E00007F003392D530D503120490EC33401059
:10036E00EF33FFEE33FEED33FDEC33FCD5F0ED2233
:0E037E00E5F0247EA2D513CC92E7CDCEFF226F
:10038C00EDD2E7CD33EC3392D524814006E4FFFE69
:10039C00FDFC22FCE4CFCECDCC24E0501174FF80C8
:1003AC00EDC3CC13CCCD13CDCE13CECF13CF047065
:0703BC00F030D5DE020490D1
:100A2C000203F822EDA2E7D2E7F9EC3340F260F3CF
:100A3C00B4FF08ED547F70E8020402F82481C2E090
:100A4C00C0E0F40428FAC313FCED92E7FD900075A6
:100A5C001204D6EEA2E7E9BA7F02C3133400940065
:100A6C00FA75F091A4E5F013F494FE8AF0A433E542
:100A7C00F033248CD313FDE492E7FE7F007C3F75AA
:100A8C008302ECC0E0F8EDC0E0F9EEC0E0FAEFC094
:100A9C00E0FB8583F090007512049E85F0831202B2
:100AAC0027D0E0FBD0E0FAD0E0F9D0E0F812002D2E
:100ABC00ED6480FD30E7011CD583C7ED33CC33F8F2
:0C0ACC00D0E0A2E71328C313CC13FD22D6
:100EB800ECC0E0F8EDC0E0F9EEC0E0FAEFC0E0FB0E
:100EC80012011EEC6480FC7B007A007980783F1266
:100ED800002D120A30D0E0CFFBD0E0CEFAD0E0CD22
:0B0EE800F9D0E0CCF812022702092A22
:1003C300E9D2E7C933E833F892D5EDD2E7CD33EC80
:0703D30033FC5002B2D522F9
:1003DA00EC30E7100FBF000C0EBE00080DBD000484
:1003EA000BEB6014A2D5EB13FCED92E7FD2274FF30
:1003FA00FCFDFEFF22E480F8A2D574FF13FC7D8089
:03040A00E480EF9C
:10090A00BE1249253E4CCCCDBEAAAAAB3F80000000
:10091A003E7ADBB03EED63383F24BC7D3F490FDBB6
:10092A00ED33ECC2E7CC339202B4FF13ED547F608F
:10093A00030203F87FDB7E0F7DC97C3F020A1FC2D8
:10094A0003C3947F401E7007EDD2E794904015EFE1
:10095A00FBEEFAEDF9ECF87F007E007D807C3F1219
:10096A000227D203ED33EC33248430E705E4C0E0F8
:10097A00806B04FAEDD2E754F0C333DAFD5407343E
:10098A00002323C0E0CCC0E0F8EDC0E0F9EEC0E0FF
:10099A00FAEFC0E0FBE4120358EC24FEFC90007569
:1009AA001204D612011E7B007A007980783F120069
:1009BA002D900075E0B2E7CCF0A3E0CDF0A3E0CE35
:1009CA00F0A3E0CFF0D0E0FBD0E0FAD0E0F9D0E03D
:1009DA00F812002D9000751204BA120227900075C1
:1009EA001204D690090A740312040D9000751204B9
:1009FA00BA12011ED0E0600F2416F582E43409F51C
:100A0A00831204C612002D30030B7BDB7A0F79C9DF
:100A1A0078BF12002DED33EC336006ECA20292E7A8
:020A2A00FC22AC
:10040D00C0E0EFFBEEFAEDF9ECF812011ED0E0F5CD
:10041D00F0EFFBEEFAEDF9ECF81204AAA3A3A3A3F7
:10042D00E8C0E0E9C0E0EAC0E0EBC0E0C0F01201D6
:10043D001E1204C6A3A3A3A312002DD0F0D0E0FB7F
:0D044D00D0E0FAD0E0F9D0E0F8D5F0D422EC
:100C1900020B80E493A3F8E493A34003F68001F266
:100C290008DFF48029E493A3F85407240CC8C333DC
:100C3900C4540F4420C8834004F456800146F6DFAB
:100C4900E4800B0102040810204080900C99E47E96
:100C5900019360BCA3FF543F30E509541FFEE493A0
:100C6900A360010ECF54C025E060A840B8E493A367
:100C7900FAE493A3F8E493A3C8C582C8CAC583CA92
:100C8900F0A3C8C582C8CAC583CADFE9DEE780BE4A
:010D1B0000D7
:10045A00C2D5EC30E709B2D5E4C39DFDE49CFCEEBD
:10046A0030E715B2D5E4C39FFFE49EFE120513C31D
:10047A00E49DFDE49CFC800312051330D507C3E418
:06048A009FFFE49EFE222C
:0E049000C3E49FFFE49EFEE49DFDE49CFC227D
:0C049E00E0FCA3E0FDA3E0FEA3E0FF22D1
:1004AA00E493FC740193FD740293FE740393FF2298
:0C04BA00E0F8A3E0F9A3E0FAA3E0FB22C5
:1004C600E493F8740193F9740293FA740393FB228C
:0C04D600ECF0A3EDF0A3EEF0A3EFF02299
:1004E200A8828583F0D083D0821204F91204F91213
:1004F20004F91204F9E473E493A3C583C5F0C58338
:10050200C8C582C8F0A3C583C5F0C583C8C582C863
:0105120022C6
:0C106A00EE30E707C3E49FFFE49EFE2287
:10051300BC000BBE0029EF8DF084FFADF022E4CCCC
:10052300F875F008EF2FFFEE33FEEC33FCEE9DEC95
:10053300984005FCEE9DFE0FD5F0E9E4CEFD22EDDB
:10054300F8F5F0EE8420D21CFEADF075F008EF2F25
:10055300FFED33FD4007985006D5F0F222C398FD16
:050563000FD5F0EA22B3
:00000001FF
