:030000000209FAF8
:0C09FA00787FE4F6D8FD758170020A4198
:100B8000C102114B3F065B4F666D7D077F6F777C1F
:100B9000395E7971400A31BF86DBCFE6EDFD87FF14
:100BA000EF012C0004640000000004680000000055
:100BB000046C00000000042300000000043F00005B
:100BC0000000043B0000000002280000022A000090
:0C0BD00002430000024500000247000044
:100D9600EFA2E713A2E71324FF92A2EF75F0041265
:100DA600045AAEF0EEA2E71324FF92A1EF75F0020B
:0B0DB60012045AAFF0EF24FF92A022BD
:100D5E007F02120D96744B2521120E137F03120D76
:100D6E0096744B252D120E137F06120D96744B257D
:100D7E0022120E137F07120D96744B252EF8E6F5F0
:080D8E00807F057E00020E1BB0
:080E1300F8E6F5807F057E0082
:100E1B00EF1FAA0670011E4A60107C007D3CED1D81
:0A0E2B00AA0470011C4A60E880F47C
:010E3500229A
:100B0A008E118F12AB05AA047C007D6412047C8FBF
:100B1A0021AE11AF127C007D6412047C8C118D12FF
:100B2A00AE11AF127C007D0A12047C8F2DAE11AF7C
:100B3A00127C007D0A12047C8C118D1285122F7C86
:100B4A00007D64AF03AE0212047C8F227C007D64B8
:100B5A00AF03AE0212047CAA04AB057C007D0AAF87
:100B6A0003AE0212047C8F2E7C007D0AAF03AE0214
:060B7A0012047C8D302204
:100E7A00E4FDFCC3ED9FEC9E5015E4FBFA0BBB00AE
:0F0E8A00010AEB64794A70F50DBD00010C80E49C
:010E99002236
:0E0EDA007F027E00EF1FAC0670011E4C70F60A
:010EE80022E7
:0E0EE9007F0A7E00EF1FAC0670011E4C70F6F3
:010EF70022D8
:0F0EF800D2A6D2A5120EDAC2A6120EDAC2A52217
:0C0F1500C2A6D2A5120EDAD2A6020EDA95
:0E0F0700A20092A6D2A5120EDAC2A5020EDA40
:0C0F2100D2A5120EDAA2A6C2A5020EDABA
:050DC100120EF87FA6F0
:020DC600AD0777
:100DC800E4FBEBC39408748094805013ED25E0FD98
:100DD80092A6D2A5120EDAC2A5120EDA0B80E30291
:020DE8000F21D9
:100DEA00E4FDD2A6FBEBC39408748094805017EDFF
:100DFA0025E0FDD2A5120EDAA2A6E4334205C2A569
:080E0A00120EDA0B80DFAF05C8
:010E120022BD
:100EB600AA05A907120DC1AF01120DC6AF02120D88
:040EC600C6020F153C
:020E3600AA0709
:100E3800120DC1AF02120DC6120EF87FA7120DC611
:0F0E4800120DEAAD07D200120F07120F15AF05FA
:010E57002278
:100C3300120DC17F32120DC6120EF87FA7120DC618
:100C4300E4FAEAC3940674809480501A120DEA748D
:100C53005C2AF8A607EA64057004D2008002C20089
:0C0C6300120F070A80DC120F15020EE9C8
:10000E007D0B7F31120EB67D087F2C120EB67D0849
:05001E007F2D020EB66B
:100C6F00E55DFE7C00E4255CF54AEC3EF549C36486
:100C7F00809480500BC3E4954AF54AE49549F549B1
:100C8F00AC49AD4AEC1203537B9A7A997979784043
:0B0C9F0012011E8F678E668D658C644D
:010CAA002227
:100CAB00E55FFE7C00E4255EF54AEC3EF549C36446
:100CBB00809480500BC3E4954AF54AE49549F54975
:100CCB00AC49AD4AEC1203537B9A7A997979784007
:0B0CDB0012011E8F6B8E6A8D698C6801
:010CE60022EB
:100CE700E561FE7C00E42560F54AEC3EF549C36406
:100CF700809480500BC3E4954AF54AE49549F54939
:100D0700AC49AD4AEC1203537B9A7A9979797840CA
:0B0D170012011E8F6F8E6E8D6D8C6CB4
:010D220022AE
:100535000544E54470020543D39413E54394005004
:1005450003020622E4FBFA79A07841AF42AE41AD41
:1005550040AC3F12022712038C8E2A8F2BE4FBFA44
:1005650079A07841AF3EAE3DAD3CAC3B12022712BF
:10057500038C8E288F29E54624FFFFE54534FFFED1
:10058500D3EF9529EE95287E0050047F0180027FE8
:1005950000E5462401FDE43545FCD3EF9DEE9C5076
:1005A5004AE54824FFFFE54734FFFED3EF952BEEE0
:1005B500952A7E0050047F0180027F00E5482401D2
:1005C500FDE43547FCD3EF9DEE9C501FC3E529950F
:1005D50046FFE5289545FE120F2DC006C007C3E569
:1005E5002B9548FFE52A9547FE800FAF29AE2812C7
:1005F5000F2DC006C007AF2BAE2A120F2DAC06ADCE
:1006050007D007D006120B0AE4F543F544F542F589
:1006150041F540F53FF53EF53DF53CF53B120C6FD8
:10062500120CAB120CE7AF67AE66AD65AC64120396
:100635003D8F678E668D658C64AF6BAE6AAD69ACB8
:100645006812033D8F6B8E6A8D698C68A804A905B5
:10065500AA06AB0712011EC004C005C006C007AF3D
:1006650067AE66AD65AC64A804A905AA06AB07121A
:10067500011ED003D002D001D00012002DC004C04D
:1006850005C006C007AF6FAE6EAD6DAC6CA804A912
:1006950005AA06AB0712011ED003D002D001D00077
:1006A50012002D120954A804A905AA06AB07AF67C5
:1006B500AE66AD65AC64120227120D23E4FBFA7930
:1006C50034784312011E7BDB7A0F79497840120298
:1006D500278F108E0F8D0E8C0DAF6BAE6AAD69AC8A
:1006E50068A804A905AA06AB0712011EC004C00527
:1006F500C006C007AF67AE66AD65AC64A804A905C2
:10070500AA06AB0712011ED003D002D001D00012F9
:10071500002DC004C005C006C007AF6FAE6EAD6D3D
:10072500AC6CA804A905AA06AB0712011ED003D01C
:1007350002D001D00012002D120954A804A905AA5F
:1007450006AB07AF6BAE6AAD69AC68120227120D36
:1007550023E4FBFA7934784312011E7BDB7A0F79A7
:100765004978401202278F0C8E0B8D0A8C09E4FF05
:10077500FEFDFCAB10AA0FA90EA80D1202C4501362
:10078500AF10AE0FAD0EAC0D12033D8F108E0F8D59
:100795000E8C0DE4FFFEFDFCAB0CAA0BA90AA80903
:1007A5001202C45013AF0CAE0BAD0AAC0912033DD7
:1007B5008F0C8E0B8D0A8C09AF0CAE0BAD0AAC09F4
:1007C500E4FBFA7920784112011E8F0C8E0B8D0AFD
:1007D5008C09AF10AE0FAD0EAC0DE4FBFA792078A5
:1007E5004112011E8F108E0F8D0E8C0DAF42AE4142
:1007F500AD40AC3FAB0CAA0BA90AA80912002D8F7E
:10080500428E418D408C3FAF3EAE3DAD3CAC3BABE7
:1008150010AA0FA90EA80D12002D8F3E8E3D8D3CFE
:020825008C3B0A
:0108270022AE
:100E9A00758E80439850758BE0758DFE438E40C2E7
:0C0EAA0098C299D28ED2ACD2AFD2BC223A
:080003002002FDD2028F9922B8
:03002300020ECA00
:100ECA00309805C298859927309904C299C202328E
:100E5800E4F5B2F5B17596FFF5957594FFF59375C0
:100E68008901D2A9758CFC758A17D28C120E9AF555
:020E780027222F
:100BDD007FF47E01120E7AE4F5937594FFF5957509
:100BED009608C2A312000EE4FF120E368F08758907
:100BFD000175A892758CFC758A17D28C120C331264
:100C0D00053520B2F77F057E00120E7A20B2121242
:100C1D000C33120535852845852946852A47852BB0
:060C2D004820B2D880FB54
:03000B00020A8660
:100A8600C0E0C0F0C083C082C0D075D000C000C036
:100A960001C002C003C004C005C006C007C28C75F1
:100AA600A800120D5EE52764BF7016AF2112000381
:100AB600AF2D120003AF22120003AF2E120003F572
:100AC60027758CFE758A0BD28C75A8920570E57019
:100AD60064027002F570758000E570146008047099
:100AE6000875A000800375A001D007D006D005D0F8
:100AF60004D003D002D001D000D0D0D082D083D091
:040B0600F0D0E03219
:100026000203F8E86480F8E933E83360110460F00D
:10003600ED33EC337009E8FCE9FDEAFEEBFF220440
:1000460060DED3EB9FEA9EE99DE8C2E78CF0C2F73B
:1000560095F0400CE8CCF8E9CDF9EACEFAEBCFFB07
:100066001203C385D0F05804700320D5B3E804709A
:10007600075002B2D502040292D5EC0460F7E4CC34
:10008600C0E0C398F8603B94186008400DD0E0FBD0
:100096000203DAE4FBFAC9FC8028E830E406E4C986
:1000A600FBE4CAFCE830E305E4C9CACBFCE8540724
:1000B6006010F8C3E913F9EA13FAEB13FBEC13FC2F
:1000C600D8F130F52FC3E49CFCEF9BFFEE9AFEEDD2
:1000D60099FDD0E0FBEF4E4D4C701222DB0302037C
:1000E600FFEC2CFCEF33FFEE33FEED33FDED30E796
:1000F600EB0203DAEF2BFFEE3AFEED39FDD0E0FB23
:1001060050130BBB0003020402ED13FDEE13FEEFCA
:0801160013FFEC13FC0203DAF5
:10011E00EC4D6011E8497017ED33EC3304600DE4DB
:10012E00FCFFFEFD22E933E8330470F80203F812F7
:10013E0003C358046009E4CC2481500628500902F8
:10014E0004022840030203FFC0E0EB4A7044B9806A
:10015E0006D0E0FB0203EEEF4E701CBD8008EBFFF5
:10016E00EAFEE9FD80EBE98DF0A4FEE5F002020760
:10017E00E9CDF9EAFEEBFFEF89F0A4FCE5F0CE89BC
:10018E00F0A42EFFE435F0CD89F0A42DFEE435F079
:10019E008067EF4E7005BD80D780C3EF8BF0A4ACA7
:1001AE00F0EE8BF0A42CFCE435F0F8EF8AF0A42CE2
:1001BE00E5F038FCE433CB8DF0A42CFCE5F03BF8F5
:1001CE00EE8AF0A42CFCE5F038F8E433CF89F0A4E5
:1001DE002CFCE5F038CF3400CE89F0A42FFFE5F0EB
:1001EE003EFEE433C98DF0A42EFEE5F039CD8AF043
:1001FE00A42FFFE5F03EFEE43DFD33D0E0FB5007BB
:10020E000BBB000F020402EC2CFCEF33FFEE33FEAF
:06021E00ED33FD0203DADE
:10022400020402EC5D046005E8590470030203F85B
:100234001203C3580460F6EC4860F2EC7004FDFE4F
:10024400FF22C860DB2481C85009C39860025006AD
:100254000203FF9850CAF582E9294B4A7005AB8224
:100264000203EE75F0007C1A7880C3EF9BEE9AEDE2
:1002740099400DC3EF9BFFEE9AFEED99FDE842F025
:10028400DC23ACF0D0E0FFD0E0FED0E0FDAB822078
:10029400E7101BEB60BAEC2CFCEF33FFEE33FEED02
:1002A40033FD0203DAE803F830E705C0F075F00027
:1002B400EF2FFFEE33FEED33FD40B830E7C280AAE6
:1002C40074F8CC6480CCC86480C8F58204604FC3E1
:1002D400EB9FF5F0EA9E42F0E99D42F0E89C45F080
:1002E400603C501DE5825FFFE582D313CB5BCBF40A
:1002F4002B5582FB50280ABA002409B90020088033
:100304001DE5825BFBE582D313CF5FCFF4C3132FCC
:100314005582FF50090EBE00050DBD00010CC3EB54
:100324009FF5F0EA9E42F0E99D42F0E89C45F060BA
:0903340007CC4820E701B3EC22DC
:10033D00ED33EC33600A047003BD8004ECB2E7FCCE
:01034D00228D
:10034E0075F020800E75F010800575F0087D007E2A
:10035E00007F003392D530D5031204B2EC33401037
:10036E00EF33FFEE33FEED33FDEC33FCD5F0ED2233
:0E037E00E5F0247EA2D513CC92E7CDCEFF226F
:10038C00EDD2E7CD33EC3392D524814006E4FFFE69
:10039C00FDFC22FCE4CFCECDCC24E0501174FF80C8
:1003AC00EDC3CC13CCCD13CDCE13CECF13CF047065
:0703BC00F030D5DE0204B2AF
:100950000203F822EDA2E7D2E7F9EC3340F260F3AC
:10096000B4FF08ED547F70E8020402F82481C2E06D
:10097000C0E0F40428FAC313FCED92E7FD8C118D5E
:10098000128E138F14EEA2E7E9BA7F02C31334006C
:100990009400FA75F091A4E5F013F494FE8AF0A4A3
:1009A00033E5F033248CD313FDE492E7FE7F007C23
:1009B0003F758302ECC0E0F8EDC0E0F9EEC0E0FA6C
:1009C000EFC0E0FBAC11AD12AE13AF14120227D092
:1009D000E0FBD0E0FAD0E0F9D0E0F812002DED64B1
:1009E00080FD30E7011CD583CBED33CC33F8D0E06C
:0A09F000A2E71328C313CC13FD2265
:100D2300ECC0E0F8EDC0E0F9EEC0E0FAEFC0E0FBA4
:100D330012011EEC6480FC7B007A007980783F12FC
:100D4300002D120954D0E0CFFBD0E0CEFAD0E0CD95
:0B0D5300F9D0E0CCF81202270208489B
:1003C300E9D2E7C933E833F892D5EDD2E7CD33EC80
:0703D30033FC5002B2D522F9
:1003DA00EC30E7100FBF000C0EBE00080DBD000484
:1003EA000BEB6014A2D5EB13FCED92E7FD2274FF30
:1003FA00FCFDFEFF22E480F8A2D574FF13FC7D8089
:03040A00E480EF9C
:10082800BE1249253E4CCCCDBEAAAAAB3F800000E3
:100838003E7ADBB03EED63383F24BC7D3F490FDB99
:10084800ED33ECC2E7CC339200B4FF13ED547F6074
:10085800030203F87FDB7E0F7DC97C3F020943C298
:1008680001C3947F401E7007EDD2E794904015EFC6
:10087800FBEEFAEDF9ECF87F007E007D807C3F12FC
:100888000227D201ED33EC33248430E705E4C0E0DD
:10089800806D04FAEDD2E754F0C333DAFD5407341F
:1008A800002323C0E0CCC0E0F8EDC0E0F9EEC0E0E2
:1008B800FAEFC0E0FBE4120358EC24FEFC8C118D27
:1008C800128E138F1412011E7B007A007980783FF4
:1008D80012002DECC511B2E7FCEDC512FDEEC513F3
:1008E800FEEFC514FFD0E0FBD0E0FAD0E0F9D0E08D
:1008F800F812002DA811A912AA13AB141202278C02
:10090800118D128E138F14900828740312040DA8E9
:1009180011A912AA13AB1412011ED0E0600F2434DF
:10092800F582E43408F5831204D012002D30010B4F
:100938007BDB7A0F79C978BF12002DED33EC336079
:0809480006ECA20092E7FC227C
:10040D00C0E0EFFBEEFAEDF9ECF812011ED0E0F5CD
:10041D00F0EFFBEEFAEDF9ECF81204C0A3A3A3A3E1
:10042D00E8C0E0E9C0E0EAC0E0EBC0E0C0F01201D6
:10043D001E1204D0A3A3A3A312002DD0F0D0E0FB75
:0D044D00D0E0FAD0E0F9D0E0F8D5F0D422EC
:100A0600020BDDE493A3F8E493A34003F68001F21E
:100A160008DFF48029E493A3F85407240CC8C333F1
:100A2600C4540F4420C8834004F456800146F6DFC0
:100A3600E4800B0102040810204080900B80E47EC5
:100A4600019360BCA3FF543F30E509541FFEE493B5
:100A5600A360010ECF54C025E060A840B8E493A37C
:100A6600FAE493A3F8E493A3C8C582C8CAC583CAA7
:100A7600F0A3C8C582C8CAC583CADFE9DEE780BE5F
:010BDC000018
:10045A00C2D530F707B2D563F0FF05F030E70CB22A
:10046A00D5F4048463F0FF05F080018430D502F4EA
:02047A0004225A
:10047C00C2D5EC30E709B2D5E4C39DFDE49CFCEE9B
:10048C0030E715B2D5E4C39FFFE49EFE1204E0C32F
:10049C00E49DFDE49CFC80031204E030D507C3E42A
:0604AC009FFFE49EFE220A
:0E04B200C3E49FFFE49EFEE49DFDE49CFC225B
:1004C000E493FC740193FD740293FE740393FF2282
:1004D000E493F8740193F9740293FA740393FB2282
:0C0F2D00EE30E707C3E49FFFE49EFE22C5
:1004E000BC000BBE0029EF8DF084FFADF022E4CC00
:1004F000F875F008EF2FFFEE33FEEC33FCEE9DECC9
:10050000984005FCEE9DFE0FD5F0E9E4CEFD22ED0E
:10051000F8F5F0EE8420D21CFEADF075F008EF2F58
:10052000FFED33FD4007985006D5F0F222C398FD49
:050530000FD5F0EA22E6
:00000001FF
